{
  "_format": "hh-sol-artifact-1",
  "contractName": "dLand",
  "sourceName": "contracts/dLand.sol",
  "abi": [
    {
      "inputs": [
        {
          "internalType": "string",
          "name": "_name",
          "type": "string"
        },
        {
          "internalType": "string",
          "name": "_symbol",
          "type": "string"
        },
        {
          "internalType": "uint256",
          "name": "_cost",
          "type": "uint256"
        }
      ],
      "stateMutability": "nonpayable",
      "type": "constructor"
    },
    {
      "anonymous": false,
      "inputs": [
        {
          "indexed": true,
          "internalType": "address",
          "name": "owner",
          "type": "address"
        },
        {
          "indexed": true,
          "internalType": "address",
          "name": "approved",
          "type": "address"
        },
        {
          "indexed": true,
          "internalType": "uint256",
          "name": "tokenId",
          "type": "uint256"
        }
      ],
      "name": "Approval",
      "type": "event"
    },
    {
      "anonymous": false,
      "inputs": [
        {
          "indexed": true,
          "internalType": "address",
          "name": "owner",
          "type": "address"
        },
        {
          "indexed": true,
          "internalType": "address",
          "name": "operator",
          "type": "address"
        },
        {
          "indexed": false,
          "internalType": "bool",
          "name": "approved",
          "type": "bool"
        }
      ],
      "name": "ApprovalForAll",
      "type": "event"
    },
    {
      "anonymous": false,
      "inputs": [
        {
          "indexed": true,
          "internalType": "address",
          "name": "from",
          "type": "address"
        },
        {
          "indexed": true,
          "internalType": "address",
          "name": "to",
          "type": "address"
        },
        {
          "indexed": true,
          "internalType": "uint256",
          "name": "tokenId",
          "type": "uint256"
        }
      ],
      "name": "Transfer",
      "type": "event"
    },
    {
      "inputs": [
        {
          "internalType": "uint256",
          "name": "",
          "type": "uint256"
        }
      ],
      "name": "allLands",
      "outputs": [
        {
          "internalType": "string",
          "name": "name",
          "type": "string"
        },
        {
          "internalType": "address",
          "name": "owner",
          "type": "address"
        },
        {
          "internalType": "int256",
          "name": "posX",
          "type": "int256"
        },
        {
          "internalType": "int256",
          "name": "posY",
          "type": "int256"
        },
        {
          "internalType": "int256",
          "name": "posZ",
          "type": "int256"
        },
        {
          "internalType": "uint256",
          "name": "sizeX",
          "type": "uint256"
        },
        {
          "internalType": "uint256",
          "name": "sizeY",
          "type": "uint256"
        },
        {
          "internalType": "uint256",
          "name": "sizeZ",
          "type": "uint256"
        }
      ],
      "stateMutability": "view",
      "type": "function"
    },
    {
      "inputs": [
        {
          "internalType": "address",
          "name": "to",
          "type": "address"
        },
        {
          "internalType": "uint256",
          "name": "tokenId",
          "type": "uint256"
        }
      ],
      "name": "approve",
      "outputs": [],
      "stateMutability": "nonpayable",
      "type": "function"
    },
    {
      "inputs": [
        {
          "internalType": "address",
          "name": "owner",
          "type": "address"
        }
      ],
      "name": "balanceOf",
      "outputs": [
        {
          "internalType": "uint256",
          "name": "",
          "type": "uint256"
        }
      ],
      "stateMutability": "view",
      "type": "function"
    },
    {
      "inputs": [],
      "name": "cost",
      "outputs": [
        {
          "internalType": "uint256",
          "name": "",
          "type": "uint256"
        }
      ],
      "stateMutability": "view",
      "type": "function"
    },
    {
      "inputs": [
        {
          "internalType": "uint256",
          "name": "tokenId",
          "type": "uint256"
        }
      ],
      "name": "getApproved",
      "outputs": [
        {
          "internalType": "address",
          "name": "",
          "type": "address"
        }
      ],
      "stateMutability": "view",
      "type": "function"
    },
    {
      "inputs": [],
      "name": "getallLands",
      "outputs": [
        {
          "components": [
            {
              "internalType": "string",
              "name": "name",
              "type": "string"
            },
            {
              "internalType": "address",
              "name": "owner",
              "type": "address"
            },
            {
              "internalType": "int256",
              "name": "posX",
              "type": "int256"
            },
            {
              "internalType": "int256",
              "name": "posY",
              "type": "int256"
            },
            {
              "internalType": "int256",
              "name": "posZ",
              "type": "int256"
            },
            {
              "internalType": "uint256",
              "name": "sizeX",
              "type": "uint256"
            },
            {
              "internalType": "uint256",
              "name": "sizeY",
              "type": "uint256"
            },
            {
              "internalType": "uint256",
              "name": "sizeZ",
              "type": "uint256"
            }
          ],
          "internalType": "struct dLand.Land[]",
          "name": "",
          "type": "tuple[]"
        }
      ],
      "stateMutability": "view",
      "type": "function"
    },
    {
      "inputs": [
        {
          "internalType": "uint256",
          "name": "_id",
          "type": "uint256"
        }
      ],
      "name": "getland",
      "outputs": [
        {
          "components": [
            {
              "internalType": "string",
              "name": "name",
              "type": "string"
            },
            {
              "internalType": "address",
              "name": "owner",
              "type": "address"
            },
            {
              "internalType": "int256",
              "name": "posX",
              "type": "int256"
            },
            {
              "internalType": "int256",
              "name": "posY",
              "type": "int256"
            },
            {
              "internalType": "int256",
              "name": "posZ",
              "type": "int256"
            },
            {
              "internalType": "uint256",
              "name": "sizeX",
              "type": "uint256"
            },
            {
              "internalType": "uint256",
              "name": "sizeY",
              "type": "uint256"
            },
            {
              "internalType": "uint256",
              "name": "sizeZ",
              "type": "uint256"
            }
          ],
          "internalType": "struct dLand.Land",
          "name": "",
          "type": "tuple"
        }
      ],
      "stateMutability": "view",
      "type": "function"
    },
    {
      "inputs": [
        {
          "internalType": "address",
          "name": "owner",
          "type": "address"
        },
        {
          "internalType": "address",
          "name": "operator",
          "type": "address"
        }
      ],
      "name": "isApprovedForAll",
      "outputs": [
        {
          "internalType": "bool",
          "name": "",
          "type": "bool"
        }
      ],
      "stateMutability": "view",
      "type": "function"
    },
    {
      "inputs": [],
      "name": "maxSupply",
      "outputs": [
        {
          "internalType": "uint256",
          "name": "",
          "type": "uint256"
        }
      ],
      "stateMutability": "view",
      "type": "function"
    },
    {
      "inputs": [
        {
          "internalType": "uint256",
          "name": "_id",
          "type": "uint256"
        }
      ],
      "name": "mint",
      "outputs": [],
      "stateMutability": "payable",
      "type": "function"
    },
    {
      "inputs": [],
      "name": "name",
      "outputs": [
        {
          "internalType": "string",
          "name": "",
          "type": "string"
        }
      ],
      "stateMutability": "view",
      "type": "function"
    },
    {
      "inputs": [
        {
          "internalType": "uint256",
          "name": "tokenId",
          "type": "uint256"
        }
      ],
      "name": "ownerOf",
      "outputs": [
        {
          "internalType": "address",
          "name": "",
          "type": "address"
        }
      ],
      "stateMutability": "view",
      "type": "function"
    },
    {
      "inputs": [
        {
          "internalType": "address",
          "name": "from",
          "type": "address"
        },
        {
          "internalType": "address",
          "name": "to",
          "type": "address"
        },
        {
          "internalType": "uint256",
          "name": "tokenId",
          "type": "uint256"
        }
      ],
      "name": "safeTransferFrom",
      "outputs": [],
      "stateMutability": "nonpayable",
      "type": "function"
    },
    {
      "inputs": [
        {
          "internalType": "address",
          "name": "from",
          "type": "address"
        },
        {
          "internalType": "address",
          "name": "to",
          "type": "address"
        },
        {
          "internalType": "uint256",
          "name": "tokenId",
          "type": "uint256"
        },
        {
          "internalType": "bytes",
          "name": "_data",
          "type": "bytes"
        }
      ],
      "name": "safeTransferFrom",
      "outputs": [],
      "stateMutability": "nonpayable",
      "type": "function"
    },
    {
      "inputs": [
        {
          "internalType": "address",
          "name": "operator",
          "type": "address"
        },
        {
          "internalType": "bool",
          "name": "approved",
          "type": "bool"
        }
      ],
      "name": "setApprovalForAll",
      "outputs": [],
      "stateMutability": "nonpayable",
      "type": "function"
    },
    {
      "inputs": [
        {
          "internalType": "bytes4",
          "name": "interfaceId",
          "type": "bytes4"
        }
      ],
      "name": "supportsInterface",
      "outputs": [
        {
          "internalType": "bool",
          "name": "",
          "type": "bool"
        }
      ],
      "stateMutability": "view",
      "type": "function"
    },
    {
      "inputs": [],
      "name": "symbol",
      "outputs": [
        {
          "internalType": "string",
          "name": "",
          "type": "string"
        }
      ],
      "stateMutability": "view",
      "type": "function"
    },
    {
      "inputs": [
        {
          "internalType": "uint256",
          "name": "tokenId",
          "type": "uint256"
        }
      ],
      "name": "tokenURI",
      "outputs": [
        {
          "internalType": "string",
          "name": "",
          "type": "string"
        }
      ],
      "stateMutability": "view",
      "type": "function"
    },
    {
      "inputs": [],
      "name": "totalSupply",
      "outputs": [
        {
          "internalType": "uint256",
          "name": "",
          "type": "uint256"
        }
      ],
      "stateMutability": "view",
      "type": "function"
    },
    {
      "inputs": [
        {
          "internalType": "address",
          "name": "from",
          "type": "address"
        },
        {
          "internalType": "address",
          "name": "to",
          "type": "address"
        },
        {
          "internalType": "uint256",
          "name": "tokenId",
          "type": "uint256"
        }
      ],
      "name": "transferFrom",
      "outputs": [],
      "stateMutability": "nonpayable",
      "type": "function"
    }
  ],
  "bytecode": "0x608060405266038d7ea4c68000600655601460075560006008553480156200002657600080fd5b50604051620054363803806200543683398181016040528101906200004c919062001e1d565b828281600090805190602001906200006692919062001ce4565b5080600190805190602001906200007f92919062001ce4565b5050508060068190555060096040518061010001604052806040518060400160405280600881526020017f466163746f7279310000000000000000000000000000000000000000000000008152508152602001600073ffffffffffffffffffffffffffffffffffffffff16815260200160008152602001600081526020016000815260200160098152602001600981526020016009815250908060018154018082558091505060019003906000526020600020906008020160009091909190915060008201518160000190805190602001906200015e92919062001ce4565b5060208201518160010160006101000a81548173ffffffffffffffffffffffffffffffffffffffff021916908373ffffffffffffffffffffffffffffffffffffffff16021790555060408201518160020155606082015181600301556080820151816004015560a0820151816005015560c0820151816006015560e08201518160070155505060096040518061010001604052806040518060400160405280600781526020017f5374616469756d000000000000000000000000000000000000000000000000008152508152602001600073ffffffffffffffffffffffffffffffffffffffff16815260200160008152602001600a8152602001600081526020016009815260200160098152602001600981525090806001815401808255809150506001900390600052602060002090600802016000909190919091506000820151816000019080519060200190620002b992919062001ce4565b5060208201518160010160006101000a81548173ffffffffffffffffffffffffffffffffffffffff021916908373ffffffffffffffffffffffffffffffffffffffff16021790555060408201518160020155606082015181600301556080820151816004015560a0820151816005015560c0820151816006015560e08201518160070155505060096040518061010001604052806040518060400160405280600a81526020017f556e6976657273697479000000000000000000000000000000000000000000008152508152602001600073ffffffffffffffffffffffffffffffffffffffff168152602001600081526020017ffffffffffffffffffffffffffffffffffffffffffffffffffffffffffffffff681526020016000815260200160098152602001600981526020016009815250908060018154018082558091505060019003906000526020600020906008020160009091909190915060008201518160000190805190602001906200043392919062001ce4565b5060208201518160010160006101000a81548173ffffffffffffffffffffffffffffffffffffffff021916908373ffffffffffffffffffffffffffffffffffffffff16021790555060408201518160020155606082015181600301556080820151816004015560a0820151816005015560c0820151816006015560e08201518160070155505060096040518061010001604052806040518060400160405280600681526020017f486f7573653100000000000000000000000000000000000000000000000000008152508152602001600073ffffffffffffffffffffffffffffffffffffffff1681526020017ffffffffffffffffffffffffffffffffffffffffffffffffffffffffffffffff6815260200160008152602001600081526020016009815260200160098152602001600981525090806001815401808255809150506001900390600052602060002090600802016000909190919091506000820151816000019080519060200190620005ad92919062001ce4565b5060208201518160010160006101000a81548173ffffffffffffffffffffffffffffffffffffffff021916908373ffffffffffffffffffffffffffffffffffffffff16021790555060408201518160020155606082015181600301556080820151816004015560a0820151816005015560c0820151816006015560e08201518160070155505060096040518061010001604052806040518060400160405280600c81526020017f5375706572204d61726b657400000000000000000000000000000000000000008152508152602001600073ffffffffffffffffffffffffffffffffffffffff168152602001600a8152602001600081526020016000815260200160098152602001600981526020016009815250908060018154018082558091505060019003906000526020600020906008020160009091909190915060008201518160000190805190602001906200070892919062001ce4565b5060208201518160010160006101000a81548173ffffffffffffffffffffffffffffffffffffffff021916908373ffffffffffffffffffffffffffffffffffffffff16021790555060408201518160020155606082015181600301556080820151816004015560a0820151816005015560c0820151816006015560e08201518160070155505060096040518061010001604052806040518060400160405280600e81526020017f53686f7070696e6720506c617a610000000000000000000000000000000000008152508152602001600073ffffffffffffffffffffffffffffffffffffffff16815260200160008152602001601481526020016000815260200160098152602001600981526020016009815250908060018154018082558091505060019003906000526020600020906008020160009091909190915060008201518160000190805190602001906200086392919062001ce4565b5060208201518160010160006101000a81548173ffffffffffffffffffffffffffffffffffffffff021916908373ffffffffffffffffffffffffffffffffffffffff16021790555060408201518160020155606082015181600301556080820151816004015560a0820151816005015560c0820151816006015560e08201518160070155505060096040518061010001604052806040518060400160405280600681526020017f486f7573653200000000000000000000000000000000000000000000000000008152508152602001600073ffffffffffffffffffffffffffffffffffffffff1681526020017fffffffffffffffffffffffffffffffffffffffffffffffffffffffffffffffec815260200160008152602001600081526020016009815260200160098152602001600981525090806001815401808255809150506001900390600052602060002090600802016000909190919091506000820151816000019080519060200190620009dd92919062001ce4565b5060208201518160010160006101000a81548173ffffffffffffffffffffffffffffffffffffffff021916908373ffffffffffffffffffffffffffffffffffffffff16021790555060408201518160020155606082015181600301556080820151816004015560a0820151816005015560c0820151816006015560e08201518160070155505060096040518061010001604052806040518060400160405280600b81526020017f41706172746d656e7473310000000000000000000000000000000000000000008152508152602001600073ffffffffffffffffffffffffffffffffffffffff168152602001600081526020017fffffffffffffffffffffffffffffffffffffffffffffffffffffffffffffffec815260200160008152602001600981526020016009815260200160098152509080600181540180825580915050600190039060005260206000209060080201600090919091909150600082015181600001908051906020019062000b5792919062001ce4565b5060208201518160010160006101000a81548173ffffffffffffffffffffffffffffffffffffffff021916908373ffffffffffffffffffffffffffffffffffffffff16021790555060408201518160020155606082015181600301556080820151816004015560a0820151816005015560c0820151816006015560e08201518160070155505060096040518061010001604052806040518060400160405280601081526020017f4661737420466f6f642043656e746572000000000000000000000000000000008152508152602001600073ffffffffffffffffffffffffffffffffffffffff168152602001601481526020016000815260200160008152602001600981526020016009815260200160098152509080600181540180825580915050600190039060005260206000209060080201600090919091909150600082015181600001908051906020019062000cb292919062001ce4565b5060208201518160010160006101000a81548173ffffffffffffffffffffffffffffffffffffffff021916908373ffffffffffffffffffffffffffffffffffffffff16021790555060408201518160020155606082015181600301556080820151816004015560a0820151816005015560c0820151816006015560e08201518160070155505060096040518061010001604052806040518060400160405280600b81526020017f4761732053746174696f6e0000000000000000000000000000000000000000008152508152602001600073ffffffffffffffffffffffffffffffffffffffff16815260200160008152602001601e815260200160008152602001600981526020016009815260200160098152509080600181540180825580915050600190039060005260206000209060080201600090919091909150600082015181600001908051906020019062000e0d92919062001ce4565b5060208201518160010160006101000a81548173ffffffffffffffffffffffffffffffffffffffff021916908373ffffffffffffffffffffffffffffffffffffffff16021790555060408201518160020155606082015181600301556080820151816004015560a0820151816005015560c0820151816006015560e08201518160070155505060096040518061010001604052806040518060400160405280600481526020017f5061726b000000000000000000000000000000000000000000000000000000008152508152602001600073ffffffffffffffffffffffffffffffffffffffff1681526020017fffffffffffffffffffffffffffffffffffffffffffffffffffffffffffffffe281526020016000815260200160008152602001600981526020016009815260200160098152509080600181540180825580915050600190039060005260206000209060080201600090919091909150600082015181600001908051906020019062000f8792919062001ce4565b5060208201518160010160006101000a81548173ffffffffffffffffffffffffffffffffffffffff021916908373ffffffffffffffffffffffffffffffffffffffff16021790555060408201518160020155606082015181600301556080820151816004015560a0820151816005015560c0820151816006015560e08201518160070155505060096040518061010001604052806040518060400160405280600681526020017f486f7573653300000000000000000000000000000000000000000000000000008152508152602001600073ffffffffffffffffffffffffffffffffffffffff168152602001600081526020017fffffffffffffffffffffffffffffffffffffffffffffffffffffffffffffffe281526020016000815260200160098152602001600981526020016009815250908060018154018082558091505060019003906000526020600020906008020160009091909190915060008201518160000190805190602001906200110192919062001ce4565b5060208201518160010160006101000a81548173ffffffffffffffffffffffffffffffffffffffff021916908373ffffffffffffffffffffffffffffffffffffffff16021790555060408201518160020155606082015181600301556080820151816004015560a0820151816005015560c0820151816006015560e08201518160070155505060096040518061010001604052806040518060400160405280600b81526020017f436f666665652053686f700000000000000000000000000000000000000000008152508152602001600073ffffffffffffffffffffffffffffffffffffffff168152602001601e8152602001600081526020016000815260200160098152602001600981526020016009815250908060018154018082558091505060019003906000526020600020906008020160009091909190915060008201518160000190805190602001906200125c92919062001ce4565b5060208201518160010160006101000a81548173ffffffffffffffffffffffffffffffffffffffff021916908373ffffffffffffffffffffffffffffffffffffffff16021790555060408201518160020155606082015181600301556080820151816004015560a0820151816005015560c0820151816006015560e08201518160070155505060096040518061010001604052806040518060400160405280600981526020017f5265736964656e636500000000000000000000000000000000000000000000008152508152602001600073ffffffffffffffffffffffffffffffffffffffff1681526020016000815260200160288152602001600081526020016009815260200160098152602001600981525090806001815401808255809150506001900390600052602060002090600802016000909190919091506000820151816000019080519060200190620013b792919062001ce4565b5060208201518160010160006101000a81548173ffffffffffffffffffffffffffffffffffffffff021916908373ffffffffffffffffffffffffffffffffffffffff16021790555060408201518160020155606082015181600301556080820151816004015560a0820151816005015560c0820151816006015560e08201518160070155505060096040518061010001604052806040518060400160405280600881526020017f466163746f7279320000000000000000000000000000000000000000000000008152508152602001600073ffffffffffffffffffffffffffffffffffffffff1681526020017fffffffffffffffffffffffffffffffffffffffffffffffffffffffffffffffd88152602001600081526020016000815260200160098152602001600981526020016009815250908060018154018082558091505060019003906000526020600020906008020160009091909190915060008201518160000190805190602001906200153192919062001ce4565b5060208201518160010160006101000a81548173ffffffffffffffffffffffffffffffffffffffff021916908373ffffffffffffffffffffffffffffffffffffffff16021790555060408201518160020155606082015181600301556080820151816004015560a0820151816005015560c0820151816006015560e08201518160070155505060096040518061010001604052806040518060400160405280600681526020017f4d757365756d00000000000000000000000000000000000000000000000000008152508152602001600073ffffffffffffffffffffffffffffffffffffffff168152602001600081526020017fffffffffffffffffffffffffffffffffffffffffffffffffffffffffffffffd88152602001600081526020016009815260200160098152602001600981525090806001815401808255809150506001900390600052602060002090600802016000909190919091506000820151816000019080519060200190620016ab92919062001ce4565b5060208201518160010160006101000a81548173ffffffffffffffffffffffffffffffffffffffff021916908373ffffffffffffffffffffffffffffffffffffffff16021790555060408201518160020155606082015181600301556080820151816004015560a0820151816005015560c0820151816006015560e08201518160070155505060096040518061010001604052806040518060400160405280600b81526020017f47616d696e67205a6f6e650000000000000000000000000000000000000000008152508152602001600073ffffffffffffffffffffffffffffffffffffffff16815260200160288152602001600081526020016000815260200160098152602001600981526020016009815250908060018154018082558091505060019003906000526020600020906008020160009091909190915060008201518160000190805190602001906200180692919062001ce4565b5060208201518160010160006101000a81548173ffffffffffffffffffffffffffffffffffffffff021916908373ffffffffffffffffffffffffffffffffffffffff16021790555060408201518160020155606082015181600301556080820151816004015560a0820151816005015560c0820151816006015560e08201518160070155505060096040518061010001604052806040518060400160405280600881526020017f486f73706974616c0000000000000000000000000000000000000000000000008152508152602001600073ffffffffffffffffffffffffffffffffffffffff16815260200160008152602001603281526020016000815260200160098152602001600981526020016009815250908060018154018082558091505060019003906000526020600020906008020160009091909190915060008201518160000190805190602001906200196192919062001ce4565b5060208201518160010160006101000a81548173ffffffffffffffffffffffffffffffffffffffff021916908373ffffffffffffffffffffffffffffffffffffffff16021790555060408201518160020155606082015181600301556080820151816004015560a0820151816005015560c0820151816006015560e08201518160070155505060096040518061010001604052806040518060400160405280600481526020017f436c7562000000000000000000000000000000000000000000000000000000008152508152602001600073ffffffffffffffffffffffffffffffffffffffff1681526020017fffffffffffffffffffffffffffffffffffffffffffffffffffffffffffffffce81526020016000815260200160008152602001600981526020016009815260200160098152509080600181540180825580915050600190039060005260206000209060080201600090919091909150600082015181600001908051906020019062001adb92919062001ce4565b5060208201518160010160006101000a81548173ffffffffffffffffffffffffffffffffffffffff021916908373ffffffffffffffffffffffffffffffffffffffff16021790555060408201518160020155606082015181600301556080820151816004015560a0820151816005015560c0820151816006015560e08201518160070155505060096040518061010001604052806040518060400160405280600b81526020017f41706172746d656e7473320000000000000000000000000000000000000000008152508152602001600073ffffffffffffffffffffffffffffffffffffffff168152602001600081526020017fffffffffffffffffffffffffffffffffffffffffffffffffffffffffffffffce815260200160008152602001600981526020016009815260200160098152509080600181540180825580915050600190039060005260206000209060080201600090919091909150600082015181600001908051906020019062001c5592919062001ce4565b5060208201518160010160006101000a81548173ffffffffffffffffffffffffffffffffffffffff021916908373ffffffffffffffffffffffffffffffffffffffff16021790555060408201518160020155606082015181600301556080820151816004015560a0820151816005015560c0820151816006015560e08201518160070155505050505062002039565b82805462001cf29062001f44565b90600052602060002090601f01602090048101928262001d16576000855562001d62565b82601f1062001d3157805160ff191683800117855562001d62565b8280016001018555821562001d62579182015b8281111562001d6157825182559160200191906001019062001d44565b5b50905062001d71919062001d75565b5090565b5b8082111562001d9057600081600090555060010162001d76565b5090565b600062001dab62001da58462001ece565b62001ea5565b90508281526020810184848401111562001dc457600080fd5b62001dd184828562001f0e565b509392505050565b600082601f83011262001deb57600080fd5b815162001dfd84826020860162001d94565b91505092915050565b60008151905062001e17816200201f565b92915050565b60008060006060848603121562001e3357600080fd5b600084015167ffffffffffffffff81111562001e4e57600080fd5b62001e5c8682870162001dd9565b935050602084015167ffffffffffffffff81111562001e7a57600080fd5b62001e888682870162001dd9565b925050604062001e9b8682870162001e06565b9150509250925092565b600062001eb162001ec4565b905062001ebf828262001f7a565b919050565b6000604051905090565b600067ffffffffffffffff82111562001eec5762001eeb62001fdf565b5b62001ef7826200200e565b9050602081019050919050565b6000819050919050565b60005b8381101562001f2e57808201518184015260208101905062001f11565b8381111562001f3e576000848401525b50505050565b6000600282049050600182168062001f5d57607f821691505b6020821081141562001f745762001f7362001fb0565b5b50919050565b62001f85826200200e565b810181811067ffffffffffffffff8211171562001fa75762001fa662001fdf565b5b80604052505050565b7f4e487b7100000000000000000000000000000000000000000000000000000000600052602260045260246000fd5b7f4e487b7100000000000000000000000000000000000000000000000000000000600052604160045260246000fd5b6000601f19601f8301169050919050565b6200202a8162001f04565b81146200203657600080fd5b50565b6133ed80620020496000396000f3fe60806040526004361061011f5760003560e01c806370a08231116100a0578063c0e522a211610064578063c0e522a2146103f1578063c87b56dd1461041c578063d5abeb0114610459578063de7111ca14610484578063e985e9c5146104c15761011f565b806370a082311461031b57806395d89b4114610358578063a0712d6814610383578063a22cb4651461039f578063b88d4fde146103c85761011f565b806318160ddd116100e757806318160ddd1461021d57806323b872dd1461024857806341697be01461027157806342842e0e146102b55780636352211e146102de5761011f565b806301ffc9a71461012457806306fdde0314610161578063081812fc1461018c578063095ea7b3146101c957806313faede6146101f2575b600080fd5b34801561013057600080fd5b5061014b60048036038101906101469190612274565b6104fe565b60405161015891906128b4565b60405180910390f35b34801561016d57600080fd5b506101766105e0565b60405161018391906128cf565b60405180910390f35b34801561019857600080fd5b506101b360048036038101906101ae91906122c6565b610672565b6040516101c0919061282b565b60405180910390f35b3480156101d557600080fd5b506101f060048036038101906101eb9190612238565b6106f7565b005b3480156101fe57600080fd5b5061020761080f565b6040516102149190612b58565b60405180910390f35b34801561022957600080fd5b50610232610815565b60405161023f9190612b58565b60405180910390f35b34801561025457600080fd5b5061026f600480360381019061026a9190612132565b61081b565b005b34801561027d57600080fd5b50610298600480360381019061029391906122c6565b610911565b6040516102ac9897969594939291906128f1565b60405180910390f35b3480156102c157600080fd5b506102dc60048036038101906102d79190612132565b610a11565b005b3480156102ea57600080fd5b50610305600480360381019061030091906122c6565b610a31565b604051610312919061282b565b60405180910390f35b34801561032757600080fd5b50610342600480360381019061033d91906120cd565b610ae3565b60405161034f9190612b58565b60405180910390f35b34801561036457600080fd5b5061036d610b9b565b60405161037a91906128cf565b60405180910390f35b61039d600480360381019061039891906122c6565b610c2d565b005b3480156103ab57600080fd5b506103c660048036038101906103c191906121fc565b610dbb565b005b3480156103d457600080fd5b506103ef60048036038101906103ea9190612181565b610dd1565b005b3480156103fd57600080fd5b50610406610ec9565b6040516104139190612892565b60405180910390f35b34801561042857600080fd5b50610443600480360381019061043e91906122c6565b61104d565b60405161045091906128cf565b60405180910390f35b34801561046557600080fd5b5061046e6110f4565b60405161047b9190612b58565b60405180910390f35b34801561049057600080fd5b506104ab60048036038101906104a691906122c6565b6110fa565b6040516104b89190612b36565b60405180910390f35b3480156104cd57600080fd5b506104e860048036038101906104e391906120f6565b61128d565b6040516104f591906128b4565b60405180910390f35b60007f80ac58cd000000000000000000000000000000000000000000000000000000007bffffffffffffffffffffffffffffffffffffffffffffffffffffffff1916827bffffffffffffffffffffffffffffffffffffffffffffffffffffffff191614806105c957507f5b5e139f000000000000000000000000000000000000000000000000000000007bffffffffffffffffffffffffffffffffffffffffffffffffffffffff1916827bffffffffffffffffffffffffffffffffffffffffffffffffffffffff1916145b806105d957506105d882611321565b5b9050919050565b6060600080546105ef90612dd1565b80601f016020809104026020016040519081016040528092919081815260200182805461061b90612dd1565b80156106685780601f1061063d57610100808354040283529160200191610668565b820191906000526020600020905b81548152906001019060200180831161064b57829003601f168201915b5050505050905090565b600061067d8261138b565b6106bc576040517f08c379a00000000000000000000000000000000000000000000000000000000081526004016106b390612ab6565b60405180910390fd5b6004600083815260200190815260200160002060009054906101000a900473ffffffffffffffffffffffffffffffffffffffff169050919050565b600061070282610a31565b90508073ffffffffffffffffffffffffffffffffffffffff168373ffffffffffffffffffffffffffffffffffffffff161415610773576040517f08c379a000000000000000000000000000000000000000000000000000000000815260040161076a90612af6565b60405180910390fd5b8073ffffffffffffffffffffffffffffffffffffffff166107926113f7565b73ffffffffffffffffffffffffffffffffffffffff1614806107c157506107c0816107bb6113f7565b61128d565b5b610800576040517f08c379a00000000000000000000000000000000000000000000000000000000081526004016107f790612a36565b60405180910390fd5b61080a83836113ff565b505050565b60065481565b60085481565b61082c6108266113f7565b826114b8565b61086b576040517f08c379a000000000000000000000000000000000000000000000000000000000815260040161086290612b16565b60405180910390fd5b81600960018361087b9190612cdd565b815481106108b2577f4e487b7100000000000000000000000000000000000000000000000000000000600052603260045260246000fd5b906000526020600020906008020160010160006101000a81548173ffffffffffffffffffffffffffffffffffffffff021916908373ffffffffffffffffffffffffffffffffffffffff16021790555061090c838383611596565b505050565b6009818154811061092157600080fd5b906000526020600020906008020160009150905080600001805461094490612dd1565b80601f016020809104026020016040519081016040528092919081815260200182805461097090612dd1565b80156109bd5780601f10610992576101008083540402835291602001916109bd565b820191906000526020600020905b8154815290600101906020018083116109a057829003601f168201915b5050505050908060010160009054906101000a900473ffffffffffffffffffffffffffffffffffffffff16908060020154908060030154908060040154908060050154908060060154908060070154905088565b610a2c83838360405180602001604052806000815250610dd1565b505050565b6000806002600084815260200190815260200160002060009054906101000a900473ffffffffffffffffffffffffffffffffffffffff169050600073ffffffffffffffffffffffffffffffffffffffff168173ffffffffffffffffffffffffffffffffffffffff161415610ada576040517f08c379a0000000000000000000000000000000000000000000000000000000008152600401610ad190612a76565b60405180910390fd5b80915050919050565b60008073ffffffffffffffffffffffffffffffffffffffff168273ffffffffffffffffffffffffffffffffffffffff161415610b54576040517f08c379a0000000000000000000000000000000000000000000000000000000008152600401610b4b90612a56565b60405180910390fd5b600360008373ffffffffffffffffffffffffffffffffffffffff1673ffffffffffffffffffffffffffffffffffffffff168152602001908152602001600020549050919050565b606060018054610baa90612dd1565b80601f0160208091040260200160405190810160405280929190818152602001828054610bd690612dd1565b8015610c235780601f10610bf857610100808354040283529160200191610c23565b820191906000526020600020905b815481529060010190602001808311610c0657829003601f168201915b5050505050905090565b60006008549050600754811115610c4357600080fd5b600073ffffffffffffffffffffffffffffffffffffffff166009600184610c6a9190612cdd565b81548110610ca1577f4e487b7100000000000000000000000000000000000000000000000000000000600052603260045260246000fd5b906000526020600020906008020160010160009054906101000a900473ffffffffffffffffffffffffffffffffffffffff1673ffffffffffffffffffffffffffffffffffffffff1614610cf357600080fd5b600654341015610d0257600080fd5b336009600184610d129190612cdd565b81548110610d49577f4e487b7100000000000000000000000000000000000000000000000000000000600052603260045260246000fd5b906000526020600020906008020160010160006101000a81548173ffffffffffffffffffffffffffffffffffffffff021916908373ffffffffffffffffffffffffffffffffffffffff1602179055506001600854610da79190612c56565b600881905550610db733836117fd565b5050565b610dcd610dc66113f7565b838361181b565b5050565b610de2610ddc6113f7565b836114b8565b610e21576040517f08c379a0000000000000000000000000000000000000000000000000000000008152600401610e1890612b16565b60405180910390fd5b826009600184610e319190612cdd565b81548110610e68577f4e487b7100000000000000000000000000000000000000000000000000000000600052603260045260246000fd5b906000526020600020906008020160010160006101000a81548173ffffffffffffffffffffffffffffffffffffffff021916908373ffffffffffffffffffffffffffffffffffffffff160217905550610ec384848484611988565b50505050565b60606009805480602002602001604051908101604052809291908181526020016000905b82821015611044578382906000526020600020906008020160405180610100016040529081600082018054610f2190612dd1565b80601f0160208091040260200160405190810160405280929190818152602001828054610f4d90612dd1565b8015610f9a5780601f10610f6f57610100808354040283529160200191610f9a565b820191906000526020600020905b815481529060010190602001808311610f7d57829003601f168201915b505050505081526020016001820160009054906101000a900473ffffffffffffffffffffffffffffffffffffffff1673ffffffffffffffffffffffffffffffffffffffff1673ffffffffffffffffffffffffffffffffffffffff168152602001600282015481526020016003820154815260200160048201548152602001600582015481526020016006820154815260200160078201548152505081526020019060010190610eed565b50505050905090565b60606110588261138b565b611097576040517f08c379a000000000000000000000000000000000000000000000000000000000815260040161108e90612ad6565b60405180910390fd5b60006110a16119e4565b905060008151116110c157604051806020016040528060008152506110ec565b806110cb846119fb565b6040516020016110dc929190612807565b6040516020818303038152906040525b915050919050565b60075481565b611102611fa1565b60096001836111119190612cdd565b81548110611148577f4e487b7100000000000000000000000000000000000000000000000000000000600052603260045260246000fd5b90600052602060002090600802016040518061010001604052908160008201805461117290612dd1565b80601f016020809104026020016040519081016040528092919081815260200182805461119e90612dd1565b80156111eb5780601f106111c0576101008083540402835291602001916111eb565b820191906000526020600020905b8154815290600101906020018083116111ce57829003601f168201915b505050505081526020016001820160009054906101000a900473ffffffffffffffffffffffffffffffffffffffff1673ffffffffffffffffffffffffffffffffffffffff1673ffffffffffffffffffffffffffffffffffffffff16815260200160028201548152602001600382015481526020016004820154815260200160058201548152602001600682015481526020016007820154815250509050919050565b6000600560008473ffffffffffffffffffffffffffffffffffffffff1673ffffffffffffffffffffffffffffffffffffffff16815260200190815260200160002060008373ffffffffffffffffffffffffffffffffffffffff1673ffffffffffffffffffffffffffffffffffffffff16815260200190815260200160002060009054906101000a900460ff16905092915050565b60007f01ffc9a7000000000000000000000000000000000000000000000000000000007bffffffffffffffffffffffffffffffffffffffffffffffffffffffff1916827bffffffffffffffffffffffffffffffffffffffffffffffffffffffff1916149050919050565b60008073ffffffffffffffffffffffffffffffffffffffff166002600084815260200190815260200160002060009054906101000a900473ffffffffffffffffffffffffffffffffffffffff1673ffffffffffffffffffffffffffffffffffffffff1614159050919050565b600033905090565b816004600083815260200190815260200160002060006101000a81548173ffffffffffffffffffffffffffffffffffffffff021916908373ffffffffffffffffffffffffffffffffffffffff160217905550808273ffffffffffffffffffffffffffffffffffffffff1661147283610a31565b73ffffffffffffffffffffffffffffffffffffffff167f8c5be1e5ebec7d5bd14f71427d1e84f3dd0314c0f7b2291e5b200ac8c7c3b92560405160405180910390a45050565b60006114c38261138b565b611502576040517f08c379a00000000000000000000000000000000000000000000000000000000081526004016114f990612a16565b60405180910390fd5b600061150d83610a31565b90508073ffffffffffffffffffffffffffffffffffffffff168473ffffffffffffffffffffffffffffffffffffffff16148061157c57508373ffffffffffffffffffffffffffffffffffffffff1661156484610672565b73ffffffffffffffffffffffffffffffffffffffff16145b8061158d575061158c818561128d565b5b91505092915050565b8273ffffffffffffffffffffffffffffffffffffffff166115b682610a31565b73ffffffffffffffffffffffffffffffffffffffff161461160c576040517f08c379a000000000000000000000000000000000000000000000000000000000815260040161160390612996565b60405180910390fd5b600073ffffffffffffffffffffffffffffffffffffffff168273ffffffffffffffffffffffffffffffffffffffff16141561167c576040517f08c379a0000000000000000000000000000000000000000000000000000000008152600401611673906129d6565b60405180910390fd5b611687838383611ba8565b6116926000826113ff565b6001600360008573ffffffffffffffffffffffffffffffffffffffff1673ffffffffffffffffffffffffffffffffffffffff16815260200190815260200160002060008282546116e29190612cdd565b925050819055506001600360008473ffffffffffffffffffffffffffffffffffffffff1673ffffffffffffffffffffffffffffffffffffffff16815260200190815260200160002060008282546117399190612c56565b92505081905550816002600083815260200190815260200160002060006101000a81548173ffffffffffffffffffffffffffffffffffffffff021916908373ffffffffffffffffffffffffffffffffffffffff160217905550808273ffffffffffffffffffffffffffffffffffffffff168473ffffffffffffffffffffffffffffffffffffffff167fddf252ad1be2c89b69c2b068fc378daa952ba7f163c4a11628f55a4df523b3ef60405160405180910390a46117f8838383611bad565b505050565b611817828260405180602001604052806000815250611bb2565b5050565b8173ffffffffffffffffffffffffffffffffffffffff168373ffffffffffffffffffffffffffffffffffffffff16141561188a576040517f08c379a0000000000000000000000000000000000000000000000000000000008152600401611881906129f6565b60405180910390fd5b80600560008573ffffffffffffffffffffffffffffffffffffffff1673ffffffffffffffffffffffffffffffffffffffff16815260200190815260200160002060008473ffffffffffffffffffffffffffffffffffffffff1673ffffffffffffffffffffffffffffffffffffffff16815260200190815260200160002060006101000a81548160ff0219169083151502179055508173ffffffffffffffffffffffffffffffffffffffff168373ffffffffffffffffffffffffffffffffffffffff167f17307eab39ab6107e8899845ad3d59bd9653f200f220920489ca2b5937696c318360405161197b91906128b4565b60405180910390a3505050565b611993848484611596565b61199f84848484611c0d565b6119de576040517f08c379a00000000000000000000000000000000000000000000000000000000081526004016119d590612976565b60405180910390fd5b50505050565b606060405180602001604052806000815250905090565b60606000821415611a43576040518060400160405280600181526020017f30000000000000000000000000000000000000000000000000000000000000008152509050611ba3565b600082905060005b60008214611a75578080611a5e90612e34565b915050600a82611a6e9190612cac565b9150611a4b565b60008167ffffffffffffffff811115611ab7577f4e487b7100000000000000000000000000000000000000000000000000000000600052604160045260246000fd5b6040519080825280601f01601f191660200182016040528015611ae95781602001600182028036833780820191505090505b5090505b60008514611b9c57600182611b029190612cdd565b9150600a85611b119190612e7d565b6030611b1d9190612c56565b60f81b818381518110611b59577f4e487b7100000000000000000000000000000000000000000000000000000000600052603260045260246000fd5b60200101907effffffffffffffffffffffffffffffffffffffffffffffffffffffffffffff1916908160001a905350600a85611b959190612cac565b9450611aed565b8093505050505b919050565b505050565b505050565b611bbc8383611da4565b611bc96000848484611c0d565b611c08576040517f08c379a0000000000000000000000000000000000000000000000000000000008152600401611bff90612976565b60405180910390fd5b505050565b6000611c2e8473ffffffffffffffffffffffffffffffffffffffff16611f7e565b15611d97578373ffffffffffffffffffffffffffffffffffffffff1663150b7a02611c576113f7565b8786866040518563ffffffff1660e01b8152600401611c799493929190612846565b602060405180830381600087803b158015611c9357600080fd5b505af1925050508015611cc457506040513d601f19601f82011682018060405250810190611cc1919061229d565b60015b611d47573d8060008114611cf4576040519150601f19603f3d011682016040523d82523d6000602084013e611cf9565b606091505b50600081511415611d3f576040517f08c379a0000000000000000000000000000000000000000000000000000000008152600401611d3690612976565b60405180910390fd5b805181602001fd5b63150b7a0260e01b7bffffffffffffffffffffffffffffffffffffffffffffffffffffffff1916817bffffffffffffffffffffffffffffffffffffffffffffffffffffffff191614915050611d9c565b600190505b949350505050565b600073ffffffffffffffffffffffffffffffffffffffff168273ffffffffffffffffffffffffffffffffffffffff161415611e14576040517f08c379a0000000000000000000000000000000000000000000000000000000008152600401611e0b90612a96565b60405180910390fd5b611e1d8161138b565b15611e5d576040517f08c379a0000000000000000000000000000000000000000000000000000000008152600401611e54906129b6565b60405180910390fd5b611e6960008383611ba8565b6001600360008473ffffffffffffffffffffffffffffffffffffffff1673ffffffffffffffffffffffffffffffffffffffff1681526020019081526020016000206000828254611eb99190612c56565b92505081905550816002600083815260200190815260200160002060006101000a81548173ffffffffffffffffffffffffffffffffffffffff021916908373ffffffffffffffffffffffffffffffffffffffff160217905550808273ffffffffffffffffffffffffffffffffffffffff16600073ffffffffffffffffffffffffffffffffffffffff167fddf252ad1be2c89b69c2b068fc378daa952ba7f163c4a11628f55a4df523b3ef60405160405180910390a4611f7a60008383611bad565b5050565b6000808273ffffffffffffffffffffffffffffffffffffffff163b119050919050565b60405180610100016040528060608152602001600073ffffffffffffffffffffffffffffffffffffffff1681526020016000815260200160008152602001600081526020016000815260200160008152602001600081525090565b600061200f61200a84612b98565b612b73565b90508281526020810184848401111561202757600080fd5b612032848285612d8f565b509392505050565b6000813590506120498161335b565b92915050565b60008135905061205e81613372565b92915050565b60008135905061207381613389565b92915050565b60008151905061208881613389565b92915050565b600082601f83011261209f57600080fd5b81356120af848260208601611ffc565b91505092915050565b6000813590506120c7816133a0565b92915050565b6000602082840312156120df57600080fd5b60006120ed8482850161203a565b91505092915050565b6000806040838503121561210957600080fd5b60006121178582860161203a565b92505060206121288582860161203a565b9150509250929050565b60008060006060848603121561214757600080fd5b60006121558682870161203a565b93505060206121668682870161203a565b9250506040612177868287016120b8565b9150509250925092565b6000806000806080858703121561219757600080fd5b60006121a58782880161203a565b94505060206121b68782880161203a565b93505060406121c7878288016120b8565b925050606085013567ffffffffffffffff8111156121e457600080fd5b6121f08782880161208e565b91505092959194509250565b6000806040838503121561220f57600080fd5b600061221d8582860161203a565b925050602061222e8582860161204f565b9150509250929050565b6000806040838503121561224b57600080fd5b60006122598582860161203a565b925050602061226a858286016120b8565b9150509250929050565b60006020828403121561228657600080fd5b600061229484828501612064565b91505092915050565b6000602082840312156122af57600080fd5b60006122bd84828501612079565b91505092915050565b6000602082840312156122d857600080fd5b60006122e6848285016120b8565b91505092915050565b60006122fb8383612689565b905092915050565b61230c81612d11565b82525050565b61231b81612d11565b82525050565b600061232c82612bd9565b6123368185612c07565b93508360208202850161234885612bc9565b8060005b85811015612384578484038952815161236585826122ef565b945061237083612bfa565b925060208a0199505060018101905061234c565b50829750879550505050505092915050565b61239f81612d23565b82525050565b60006123b082612be4565b6123ba8185612c18565b93506123ca818560208601612d9e565b6123d381612f6a565b840191505092915050565b6123e781612d5b565b82525050565b6123f681612d5b565b82525050565b600061240782612bef565b6124118185612c29565b9350612421818560208601612d9e565b61242a81612f6a565b840191505092915050565b600061244082612bef565b61244a8185612c3a565b935061245a818560208601612d9e565b61246381612f6a565b840191505092915050565b600061247982612bef565b6124838185612c4b565b9350612493818560208601612d9e565b80840191505092915050565b60006124ac603283612c3a565b91506124b782612f7b565b604082019050919050565b60006124cf602583612c3a565b91506124da82612fca565b604082019050919050565b60006124f2601c83612c3a565b91506124fd82613019565b602082019050919050565b6000612515602483612c3a565b915061252082613042565b604082019050919050565b6000612538601983612c3a565b915061254382613091565b602082019050919050565b600061255b602c83612c3a565b9150612566826130ba565b604082019050919050565b600061257e603883612c3a565b915061258982613109565b604082019050919050565b60006125a1602a83612c3a565b91506125ac82613158565b604082019050919050565b60006125c4602983612c3a565b91506125cf826131a7565b604082019050919050565b60006125e7602083612c3a565b91506125f2826131f6565b602082019050919050565b600061260a602c83612c3a565b91506126158261321f565b604082019050919050565b600061262d602f83612c3a565b91506126388261326e565b604082019050919050565b6000612650602183612c3a565b915061265b826132bd565b604082019050919050565b6000612673603183612c3a565b915061267e8261330c565b604082019050919050565b60006101008301600083015184820360008601526126a782826123fc565b91505060208301516126bc6020860182612303565b5060408301516126cf60408601826123de565b5060608301516126e260608601826123de565b5060808301516126f560808601826123de565b5060a083015161270860a08601826127e9565b5060c083015161271b60c08601826127e9565b5060e083015161272e60e08601826127e9565b508091505092915050565b600061010083016000830151848203600086015261275782826123fc565b915050602083015161276c6020860182612303565b50604083015161277f60408601826123de565b50606083015161279260608601826123de565b5060808301516127a560808601826123de565b5060a08301516127b860a08601826127e9565b5060c08301516127cb60c08601826127e9565b5060e08301516127de60e08601826127e9565b508091505092915050565b6127f281612d85565b82525050565b61280181612d85565b82525050565b6000612813828561246e565b915061281f828461246e565b91508190509392505050565b60006020820190506128406000830184612312565b92915050565b600060808201905061285b6000830187612312565b6128686020830186612312565b61287560408301856127f8565b818103606083015261288781846123a5565b905095945050505050565b600060208201905081810360008301526128ac8184612321565b905092915050565b60006020820190506128c96000830184612396565b92915050565b600060208201905081810360008301526128e98184612435565b905092915050565b600061010082019050818103600083015261290c818b612435565b905061291b602083018a612312565b61292860408301896123ed565b61293560608301886123ed565b61294260808301876123ed565b61294f60a08301866127f8565b61295c60c08301856127f8565b61296960e08301846127f8565b9998505050505050505050565b6000602082019050818103600083015261298f8161249f565b9050919050565b600060208201905081810360008301526129af816124c2565b9050919050565b600060208201905081810360008301526129cf816124e5565b9050919050565b600060208201905081810360008301526129ef81612508565b9050919050565b60006020820190508181036000830152612a0f8161252b565b9050919050565b60006020820190508181036000830152612a2f8161254e565b9050919050565b60006020820190508181036000830152612a4f81612571565b9050919050565b60006020820190508181036000830152612a6f81612594565b9050919050565b60006020820190508181036000830152612a8f816125b7565b9050919050565b60006020820190508181036000830152612aaf816125da565b9050919050565b60006020820190508181036000830152612acf816125fd565b9050919050565b60006020820190508181036000830152612aef81612620565b9050919050565b60006020820190508181036000830152612b0f81612643565b9050919050565b60006020820190508181036000830152612b2f81612666565b9050919050565b60006020820190508181036000830152612b508184612739565b905092915050565b6000602082019050612b6d60008301846127f8565b92915050565b6000612b7d612b8e565b9050612b898282612e03565b919050565b6000604051905090565b600067ffffffffffffffff821115612bb357612bb2612f3b565b5b612bbc82612f6a565b9050602081019050919050565b6000819050602082019050919050565b600081519050919050565b600081519050919050565b600081519050919050565b6000602082019050919050565b600082825260208201905092915050565b600082825260208201905092915050565b600082825260208201905092915050565b600082825260208201905092915050565b600081905092915050565b6000612c6182612d85565b9150612c6c83612d85565b9250827fffffffffffffffffffffffffffffffffffffffffffffffffffffffffffffffff03821115612ca157612ca0612eae565b5b828201905092915050565b6000612cb782612d85565b9150612cc283612d85565b925082612cd257612cd1612edd565b5b828204905092915050565b6000612ce882612d85565b9150612cf383612d85565b925082821015612d0657612d05612eae565b5b828203905092915050565b6000612d1c82612d65565b9050919050565b60008115159050919050565b60007fffffffff0000000000000000000000000000000000000000000000000000000082169050919050565b6000819050919050565b600073ffffffffffffffffffffffffffffffffffffffff82169050919050565b6000819050919050565b82818337600083830152505050565b60005b83811015612dbc578082015181840152602081019050612da1565b83811115612dcb576000848401525b50505050565b60006002820490506001821680612de957607f821691505b60208210811415612dfd57612dfc612f0c565b5b50919050565b612e0c82612f6a565b810181811067ffffffffffffffff82111715612e2b57612e2a612f3b565b5b80604052505050565b6000612e3f82612d85565b91507fffffffffffffffffffffffffffffffffffffffffffffffffffffffffffffffff821415612e7257612e71612eae565b5b600182019050919050565b6000612e8882612d85565b9150612e9383612d85565b925082612ea357612ea2612edd565b5b828206905092915050565b7f4e487b7100000000000000000000000000000000000000000000000000000000600052601160045260246000fd5b7f4e487b7100000000000000000000000000000000000000000000000000000000600052601260045260246000fd5b7f4e487b7100000000000000000000000000000000000000000000000000000000600052602260045260246000fd5b7f4e487b7100000000000000000000000000000000000000000000000000000000600052604160045260246000fd5b6000601f19601f8301169050919050565b7f4552433732313a207472616e7366657220746f206e6f6e20455243373231526560008201527f63656976657220696d706c656d656e7465720000000000000000000000000000602082015250565b7f4552433732313a207472616e736665722066726f6d20696e636f72726563742060008201527f6f776e6572000000000000000000000000000000000000000000000000000000602082015250565b7f4552433732313a20746f6b656e20616c7265616479206d696e74656400000000600082015250565b7f4552433732313a207472616e7366657220746f20746865207a65726f2061646460008201527f7265737300000000000000000000000000000000000000000000000000000000602082015250565b7f4552433732313a20617070726f766520746f2063616c6c657200000000000000600082015250565b7f4552433732313a206f70657261746f7220717565727920666f72206e6f6e657860008201527f697374656e7420746f6b656e0000000000000000000000000000000000000000602082015250565b7f4552433732313a20617070726f76652063616c6c6572206973206e6f74206f7760008201527f6e6572206e6f7220617070726f76656420666f7220616c6c0000000000000000602082015250565b7f4552433732313a2062616c616e636520717565727920666f7220746865207a6560008201527f726f206164647265737300000000000000000000000000000000000000000000602082015250565b7f4552433732313a206f776e657220717565727920666f72206e6f6e657869737460008201527f656e7420746f6b656e0000000000000000000000000000000000000000000000602082015250565b7f4552433732313a206d696e7420746f20746865207a65726f2061646472657373600082015250565b7f4552433732313a20617070726f76656420717565727920666f72206e6f6e657860008201527f697374656e7420746f6b656e0000000000000000000000000000000000000000602082015250565b7f4552433732314d657461646174613a2055524920717565727920666f72206e6f60008201527f6e6578697374656e7420746f6b656e0000000000000000000000000000000000602082015250565b7f4552433732313a20617070726f76616c20746f2063757272656e74206f776e6560008201527f7200000000000000000000000000000000000000000000000000000000000000602082015250565b7f4552433732313a207472616e736665722063616c6c6572206973206e6f74206f60008201527f776e6572206e6f7220617070726f766564000000000000000000000000000000602082015250565b61336481612d11565b811461336f57600080fd5b50565b61337b81612d23565b811461338657600080fd5b50565b61339281612d2f565b811461339d57600080fd5b50565b6133a981612d85565b81146133b457600080fd5b5056fea2646970667358221220389fde7fd98f9ec3a9cbd578e8d0dd5b51891ca4842797fd378f2ad5054a316364736f6c63430008010033",
  "linkReferences": {},
  "deployedLinkReferences": {}
}